{
  "_format": "hh-sol-artifact-1",
  "contractName": "Compliance",
  "sourceName": "contracts/compliance.sol",
  "abi": [
    {
      "anonymous": false,
      "inputs": [
        {
          "indexed": true,
          "internalType": "bytes32",
          "name": "datasetHash",
          "type": "bytes32"
        },
        {
          "indexed": false,
          "internalType": "address",
          "name": "registrar",
          "type": "address"
        },
        {
          "indexed": false,
          "internalType": "uint256",
          "name": "timestamp",
          "type": "uint256"
        }
      ],
      "name": "DatasetRegistered",
      "type": "event"
    },
    {
      "inputs": [
        {
          "internalType": "bytes32",
          "name": "datasetHash",
          "type": "bytes32"
        }
      ],
      "name": "registerDataset",
      "outputs": [],
      "stateMutability": "nonpayable",
      "type": "function"
    }
  ],
  "bytecode": "0x608060405234801561001057600080fd5b506101aa806100206000396000f3fe608060405234801561001057600080fd5b506004361061002b5760003560e01c8063bccda5a314610030575b600080fd5b61004a600480360381019061004591906100c4565b61004c565b005b807fc711d411a036081ab74907c77528ec22ca984809a30b2017e4b4a11a6346dfac334260405161007e92919061014b565b60405180910390a250565b600080fd5b6000819050919050565b6100a18161008e565b81146100ac57600080fd5b50565b6000813590506100be81610098565b92915050565b6000602082840312156100da576100d9610089565b5b60006100e8848285016100af565b91505092915050565b600073ffffffffffffffffffffffffffffffffffffffff82169050919050565b600061011c826100f1565b9050919050565b61012c81610111565b82525050565b6000819050919050565b61014581610132565b82525050565b60006040820190506101606000830185610123565b61016d602083018461013c565b939250505056fea264697066735822122043d8890a840c9a2ab0951fbec371ed56e8282ebcf7c579aeb826e6a47f102f1164736f6c63430008130033",
  "linkReferences": {},
  "deployedLinkReferences": {}
}